{
  "_format": "hh-sol-artifact-1",
  "contractName": "GetterFacet",
  "sourceName": "contracts/facets/GetterFacet.sol",
  "abi": [
    {
      "inputs": [
        {
          "internalType": "address",
          "name": "_collateralToken",
          "type": "address"
        },
        {
          "internalType": "address",
          "name": "_recipient",
          "type": "address"
        }
      ],
      "name": "getClaims",
      "outputs": [
        {
          "internalType": "uint256",
          "name": "",
          "type": "uint256"
        }
      ],
      "stateMutability": "view",
      "type": "function"
    },
    {
      "inputs": [],
      "name": "getGovernanceParameters",
      "outputs": [
        {
          "components": [
            {
              "internalType": "uint256",
              "name": "redemptionFee",
              "type": "uint256"
            },
            {
              "internalType": "uint256",
              "name": "settlementFee",
              "type": "uint256"
            },
            {
              "internalType": "uint256",
              "name": "finalReferenceValueSubmissionPeriod",
              "type": "uint256"
            },
            {
              "internalType": "uint256",
              "name": "finalReferenceValueChallengePeriod",
              "type": "uint256"
            },
            {
              "internalType": "uint256",
              "name": "finalReferenceValueReviewPeriod",
              "type": "uint256"
            },
            {
              "internalType": "uint256",
              "name": "finalReferenceValueDIVASubmissionPeriod",
              "type": "uint256"
            },
            {
              "internalType": "address",
              "name": "treasury",
              "type": "address"
            }
          ],
          "internalType": "struct LibDiamond.GovernanceStorage",
          "name": "",
          "type": "tuple"
        }
      ],
      "stateMutability": "view",
      "type": "function"
    },
    {
      "inputs": [],
      "name": "getLatestPoolId",
      "outputs": [
        {
          "internalType": "uint256",
          "name": "",
          "type": "uint256"
        }
      ],
      "stateMutability": "view",
      "type": "function"
    },
    {
      "inputs": [
        {
          "internalType": "address",
          "name": "_positionToken",
          "type": "address"
        }
      ],
      "name": "getPoolParametersByAddress",
      "outputs": [
        {
          "components": [
            {
              "internalType": "string",
              "name": "referenceAsset",
              "type": "string"
            },
            {
              "internalType": "uint256",
              "name": "inflection",
              "type": "uint256"
            },
            {
              "internalType": "uint256",
              "name": "cap",
              "type": "uint256"
            },
            {
              "internalType": "uint256",
              "name": "floor",
              "type": "uint256"
            },
            {
              "internalType": "uint256",
              "name": "supplyShortInitial",
              "type": "uint256"
            },
            {
              "internalType": "uint256",
              "name": "supplyLongInitial",
              "type": "uint256"
            },
            {
              "internalType": "uint256",
              "name": "supplyShort",
              "type": "uint256"
            },
            {
              "internalType": "uint256",
              "name": "supplyLong",
              "type": "uint256"
            },
            {
              "internalType": "uint256",
              "name": "expiryDate",
              "type": "uint256"
            },
            {
              "internalType": "address",
              "name": "collateralToken",
              "type": "address"
            },
            {
              "internalType": "uint256",
              "name": "collateralBalanceShortInitial",
              "type": "uint256"
            },
            {
              "internalType": "uint256",
              "name": "collateralBalanceLongInitial",
              "type": "uint256"
            },
            {
              "internalType": "uint256",
              "name": "collateralBalanceShort",
              "type": "uint256"
            },
            {
              "internalType": "uint256",
              "name": "collateralBalanceLong",
              "type": "uint256"
            },
            {
              "internalType": "address",
              "name": "shortToken",
              "type": "address"
            },
            {
              "internalType": "address",
              "name": "longToken",
              "type": "address"
            },
            {
              "internalType": "uint256",
              "name": "finalReferenceValue",
              "type": "uint256"
            },
            {
              "internalType": "enum LibDiamond.Status",
              "name": "statusFinalReferenceValue",
              "type": "uint8"
            },
            {
              "internalType": "uint256",
              "name": "redemptionAmountLongToken",
              "type": "uint256"
            },
            {
              "internalType": "uint256",
              "name": "redemptionAmountShortToken",
              "type": "uint256"
            },
            {
              "internalType": "uint256",
              "name": "statusTimeStamp",
              "type": "uint256"
            },
            {
              "internalType": "address",
              "name": "dataFeedProvider",
              "type": "address"
            },
            {
              "internalType": "uint256",
              "name": "redemptionFee",
              "type": "uint256"
            },
            {
              "internalType": "uint256",
              "name": "settlementFee",
              "type": "uint256"
            }
          ],
          "internalType": "struct LibDiamond.Pool",
          "name": "",
          "type": "tuple"
        }
      ],
      "stateMutability": "view",
      "type": "function"
    },
    {
      "inputs": [
        {
          "internalType": "uint256",
          "name": "_poolId",
          "type": "uint256"
        }
      ],
      "name": "getPoolParametersById",
      "outputs": [
        {
          "components": [
            {
              "internalType": "string",
              "name": "referenceAsset",
              "type": "string"
            },
            {
              "internalType": "uint256",
              "name": "inflection",
              "type": "uint256"
            },
            {
              "internalType": "uint256",
              "name": "cap",
              "type": "uint256"
            },
            {
              "internalType": "uint256",
              "name": "floor",
              "type": "uint256"
            },
            {
              "internalType": "uint256",
              "name": "supplyShortInitial",
              "type": "uint256"
            },
            {
              "internalType": "uint256",
              "name": "supplyLongInitial",
              "type": "uint256"
            },
            {
              "internalType": "uint256",
              "name": "supplyShort",
              "type": "uint256"
            },
            {
              "internalType": "uint256",
              "name": "supplyLong",
              "type": "uint256"
            },
            {
              "internalType": "uint256",
              "name": "expiryDate",
              "type": "uint256"
            },
            {
              "internalType": "address",
              "name": "collateralToken",
              "type": "address"
            },
            {
              "internalType": "uint256",
              "name": "collateralBalanceShortInitial",
              "type": "uint256"
            },
            {
              "internalType": "uint256",
              "name": "collateralBalanceLongInitial",
              "type": "uint256"
            },
            {
              "internalType": "uint256",
              "name": "collateralBalanceShort",
              "type": "uint256"
            },
            {
              "internalType": "uint256",
              "name": "collateralBalanceLong",
              "type": "uint256"
            },
            {
              "internalType": "address",
              "name": "shortToken",
              "type": "address"
            },
            {
              "internalType": "address",
              "name": "longToken",
              "type": "address"
            },
            {
              "internalType": "uint256",
              "name": "finalReferenceValue",
              "type": "uint256"
            },
            {
              "internalType": "enum LibDiamond.Status",
              "name": "statusFinalReferenceValue",
              "type": "uint8"
            },
            {
              "internalType": "uint256",
              "name": "redemptionAmountLongToken",
              "type": "uint256"
            },
            {
              "internalType": "uint256",
              "name": "redemptionAmountShortToken",
              "type": "uint256"
            },
            {
              "internalType": "uint256",
              "name": "statusTimeStamp",
              "type": "uint256"
            },
            {
              "internalType": "address",
              "name": "dataFeedProvider",
              "type": "address"
            },
            {
              "internalType": "uint256",
              "name": "redemptionFee",
              "type": "uint256"
            },
            {
              "internalType": "uint256",
              "name": "settlementFee",
              "type": "uint256"
            }
          ],
          "internalType": "struct LibDiamond.Pool",
          "name": "",
          "type": "tuple"
        }
      ],
      "stateMutability": "view",
      "type": "function"
    },
    {
      "inputs": [],
      "name": "getTreasuryAddress",
      "outputs": [
        {
          "internalType": "address",
          "name": "",
          "type": "address"
        }
      ],
      "stateMutability": "view",
      "type": "function"
    }
  ],
  "bytecode": "0x608060405234801561001057600080fd5b50610f2c806100206000396000f3fe608060405234801561001057600080fd5b50600436106100625760003560e01c80634a2fe84d146100675780634d580442146100855780635835cf30146100b5578063a6d53282146100d3578063e002460414610103578063f51e43b514610121575b600080fd5b61006f610151565b60405161007c9190610d43565b60405180910390f35b61009f600480360381019061009a919061093f565b610160565b6040516100ac9190610d43565b60405180910390f35b6100bd610174565b6040516100ca9190610d06565b60405180910390f35b6100ed60048036038101906100e8919061097f565b61022c565b6040516100fa9190610d21565b60405180910390f35b61010b610244565b6040516101189190610ceb565b60405180910390f35b61013b60048036038101906101369190610912565b610253565b6040516101489190610d21565b60405180910390f35b600061015b6102f4565b905090565b600061016c8383610307565b905092915050565b61017c610761565b6000610186610397565b9050806040518060e00160405290816000820154815260200160018201548152602001600282015481526020016003820154815260200160048201548152602001600582015481526020016006820160009054906101000a900473ffffffffffffffffffffffffffffffffffffffff1673ffffffffffffffffffffffffffffffffffffffff1673ffffffffffffffffffffffffffffffffffffffff168152505091505090565b6102346107b4565b61023d826103c4565b9050919050565b600061024e6106d4565b905090565b61025b6107b4565b600082905060008173ffffffffffffffffffffffffffffffffffffffff16633e0dc34e6040518163ffffffff1660e01b815260040160206040518083038186803b1580156102a857600080fd5b505afa1580156102bc573d6000803e3d6000fd5b505050506040513d601f19601f820116820180604052508101906102e091906109ac565b90506102eb816103c4565b92505050919050565b60006102fe610707565b60000154905090565b6000610311610734565b60000160008473ffffffffffffffffffffffffffffffffffffffff1673ffffffffffffffffffffffffffffffffffffffff16815260200190815260200160002060008373ffffffffffffffffffffffffffffffffffffffff1673ffffffffffffffffffffffffffffffffffffffff16815260200190815260200160002054905092915050565b6000807f898b136e888260ec0628fb6c3ad8f54cb15908878595b2abfc8c9ecda73a4daf90508091505090565b6103cc6107b4565b6103d4610707565b60010160008381526020019081526020016000206040518061030001604052908160008201805461040490610e0e565b80601f016020809104026020016040519081016040528092919081815260200182805461043090610e0e565b801561047d5780601f106104525761010080835404028352916020019161047d565b820191906000526020600020905b81548152906001019060200180831161046057829003601f168201915b5050505050815260200160018201548152602001600282015481526020016003820154815260200160048201548152602001600582015481526020016006820154815260200160078201548152602001600882015481526020016009820160009054906101000a900473ffffffffffffffffffffffffffffffffffffffff1673ffffffffffffffffffffffffffffffffffffffff1673ffffffffffffffffffffffffffffffffffffffff168152602001600a8201548152602001600b8201548152602001600c8201548152602001600d8201548152602001600e820160009054906101000a900473ffffffffffffffffffffffffffffffffffffffff1673ffffffffffffffffffffffffffffffffffffffff1673ffffffffffffffffffffffffffffffffffffffff168152602001600f820160009054906101000a900473ffffffffffffffffffffffffffffffffffffffff1673ffffffffffffffffffffffffffffffffffffffff1673ffffffffffffffffffffffffffffffffffffffff168152602001601082015481526020016011820160009054906101000a900460ff16600381111561062f5761062e610e40565b5b600381111561064157610640610e40565b5b81526020016012820154815260200160138201548152602001601482015481526020016015820160009054906101000a900473ffffffffffffffffffffffffffffffffffffffff1673ffffffffffffffffffffffffffffffffffffffff1673ffffffffffffffffffffffffffffffffffffffff168152602001601682015481526020016017820154815250509050919050565b60006106de610397565b60060160009054906101000a900473ffffffffffffffffffffffffffffffffffffffff16905090565b6000807f57b54c9a1067e6ab879c66c176c4e86e41fe1dcf5187b31dc2b93365087c7afb90508091505090565b6000807faa80508862c2755b3bec068087a52c5c5d27e516adb980608e66b45e74b59f2390508091505090565b6040518060e00160405280600081526020016000815260200160008152602001600081526020016000815260200160008152602001600073ffffffffffffffffffffffffffffffffffffffff1681525090565b604051806103000160405280606081526020016000815260200160008152602001600081526020016000815260200160008152602001600081526020016000815260200160008152602001600073ffffffffffffffffffffffffffffffffffffffff16815260200160008152602001600081526020016000815260200160008152602001600073ffffffffffffffffffffffffffffffffffffffff168152602001600073ffffffffffffffffffffffffffffffffffffffff168152602001600081526020016000600381111561088d5761088c610e40565b5b8152602001600081526020016000815260200160008152602001600073ffffffffffffffffffffffffffffffffffffffff16815260200160008152602001600081525090565b6000813590506108e281610ec8565b92915050565b6000813590506108f781610edf565b92915050565b60008151905061090c81610edf565b92915050565b60006020828403121561092857610927610e9e565b5b6000610936848285016108d3565b91505092915050565b6000806040838503121561095657610955610e9e565b5b6000610964858286016108d3565b9250506020610975858286016108d3565b9150509250929050565b60006020828403121561099557610994610e9e565b5b60006109a3848285016108e8565b91505092915050565b6000602082840312156109c2576109c1610e9e565b5b60006109d0848285016108fd565b91505092915050565b6109e281610d7a565b82525050565b6109f181610d7a565b82525050565b610a0081610dc9565b82525050565b6000610a1182610d5e565b610a1b8185610d69565b9350610a2b818560208601610ddb565b610a3481610ea3565b840191505092915050565b60e082016000820151610a556000850182610ccd565b506020820151610a686020850182610ccd565b506040820151610a7b6040850182610ccd565b506060820151610a8e6060850182610ccd565b506080820151610aa16080850182610ccd565b5060a0820151610ab460a0850182610ccd565b5060c0820151610ac760c08501826109d9565b50505050565b6000610300830160008301518482036000860152610aeb8282610a06565b9150506020830151610b006020860182610ccd565b506040830151610b136040860182610ccd565b506060830151610b266060860182610ccd565b506080830151610b396080860182610ccd565b5060a0830151610b4c60a0860182610ccd565b5060c0830151610b5f60c0860182610ccd565b5060e0830151610b7260e0860182610ccd565b50610100830151610b87610100860182610ccd565b50610120830151610b9c6101208601826109d9565b50610140830151610bb1610140860182610ccd565b50610160830151610bc6610160860182610ccd565b50610180830151610bdb610180860182610ccd565b506101a0830151610bf06101a0860182610ccd565b506101c0830151610c056101c08601826109d9565b506101e0830151610c1a6101e08601826109d9565b50610200830151610c2f610200860182610ccd565b50610220830151610c446102208601826109f7565b50610240830151610c59610240860182610ccd565b50610260830151610c6e610260860182610ccd565b50610280830151610c83610280860182610ccd565b506102a0830151610c986102a08601826109d9565b506102c0830151610cad6102c0860182610ccd565b506102e0830151610cc26102e0860182610ccd565b508091505092915050565b610cd681610dbf565b82525050565b610ce581610dbf565b82525050565b6000602082019050610d0060008301846109e8565b92915050565b600060e082019050610d1b6000830184610a3f565b92915050565b60006020820190508181036000830152610d3b8184610acd565b905092915050565b6000602082019050610d586000830184610cdc565b92915050565b600081519050919050565b600082825260208201905092915050565b6000610d8582610d9f565b9050919050565b6000819050610d9a82610eb4565b919050565b600073ffffffffffffffffffffffffffffffffffffffff82169050919050565b6000819050919050565b6000610dd482610d8c565b9050919050565b60005b83811015610df9578082015181840152602081019050610dde565b83811115610e08576000848401525b50505050565b60006002820490506001821680610e2657607f821691505b60208210811415610e3a57610e39610e6f565b5b50919050565b7f4e487b7100000000000000000000000000000000000000000000000000000000600052602160045260246000fd5b7f4e487b7100000000000000000000000000000000000000000000000000000000600052602260045260246000fd5b600080fd5b6000601f19601f8301169050919050565b60048110610ec557610ec4610e40565b5b50565b610ed181610d7a565b8114610edc57600080fd5b50565b610ee881610dbf565b8114610ef357600080fd5b5056fea2646970667358221220c90e49e916816367e99b678f04c9eb322ec10224e1d661e67b085758502cf7da64736f6c63430008060033",
  "linkReferences": {},
  "deployedLinkReferences": {}
}