{
  "_format": "hh-sol-artifact-1",
  "contractName": "PoolFacet",
  "sourceName": "contracts/facets/PoolFacet.sol",
  "abi": [
    {
      "anonymous": false,
      "inputs": [
        {
          "indexed": true,
          "internalType": "uint256",
          "name": "poolId",
          "type": "uint256"
        },
        {
          "indexed": true,
          "internalType": "address",
          "name": "from",
          "type": "address"
        },
        {
          "indexed": false,
          "internalType": "uint256",
          "name": "collateralAmount",
          "type": "uint256"
        }
      ],
      "name": "LiquidityAdded",
      "type": "event"
    },
    {
      "anonymous": false,
      "inputs": [
        {
          "indexed": true,
          "internalType": "uint256",
          "name": "poolId",
          "type": "uint256"
        },
        {
          "indexed": true,
          "internalType": "address",
          "name": "from",
          "type": "address"
        },
        {
          "indexed": false,
          "internalType": "uint256",
          "name": "collateralAmount",
          "type": "uint256"
        }
      ],
      "name": "LiquidityRemoved",
      "type": "event"
    },
    {
      "anonymous": false,
      "inputs": [
        {
          "indexed": true,
          "internalType": "uint256",
          "name": "poolId",
          "type": "uint256"
        },
        {
          "indexed": true,
          "internalType": "address",
          "name": "shortToken",
          "type": "address"
        },
        {
          "indexed": true,
          "internalType": "address",
          "name": "longToken",
          "type": "address"
        }
      ],
      "name": "PoolIssued",
      "type": "event"
    },
    {
      "inputs": [
        {
          "internalType": "uint256",
          "name": "_poolId",
          "type": "uint256"
        },
        {
          "internalType": "uint256",
          "name": "_supplyCollateralAmountIncr",
          "type": "uint256"
        }
      ],
      "name": "addLiquidity",
      "outputs": [
        {
          "internalType": "bool",
          "name": "",
          "type": "bool"
        }
      ],
      "stateMutability": "nonpayable",
      "type": "function"
    },
    {
      "inputs": [
        {
          "components": [
            {
              "internalType": "uint256",
              "name": "inflection",
              "type": "uint256"
            },
            {
              "internalType": "uint256",
              "name": "cap",
              "type": "uint256"
            },
            {
              "internalType": "uint256",
              "name": "floor",
              "type": "uint256"
            },
            {
              "internalType": "uint256",
              "name": "collateralBalanceShort",
              "type": "uint256"
            },
            {
              "internalType": "uint256",
              "name": "collateralBalanceLong",
              "type": "uint256"
            },
            {
              "internalType": "uint256",
              "name": "expiryDate",
              "type": "uint256"
            },
            {
              "internalType": "uint256",
              "name": "supplyShort",
              "type": "uint256"
            },
            {
              "internalType": "uint256",
              "name": "supplyLong",
              "type": "uint256"
            },
            {
              "internalType": "string",
              "name": "referenceAsset",
              "type": "string"
            },
            {
              "internalType": "address",
              "name": "collateralToken",
              "type": "address"
            },
            {
              "internalType": "address",
              "name": "dataFeedProvider",
              "type": "address"
            }
          ],
          "internalType": "struct IPool.PoolParams",
          "name": "_poolParams",
          "type": "tuple"
        }
      ],
      "name": "createContingentPool",
      "outputs": [
        {
          "internalType": "bool",
          "name": "",
          "type": "bool"
        }
      ],
      "stateMutability": "nonpayable",
      "type": "function"
    },
    {
      "inputs": [
        {
          "internalType": "address",
          "name": "_positionToken",
          "type": "address"
        },
        {
          "internalType": "uint256",
          "name": "_amount",
          "type": "uint256"
        }
      ],
      "name": "redeemPositionToken",
      "outputs": [
        {
          "internalType": "bool",
          "name": "",
          "type": "bool"
        }
      ],
      "stateMutability": "nonpayable",
      "type": "function"
    },
    {
      "inputs": [
        {
          "internalType": "uint256",
          "name": "_poolId",
          "type": "uint256"
        },
        {
          "internalType": "uint256",
          "name": "_amountLongTokens",
          "type": "uint256"
        }
      ],
      "name": "removeLiquidity",
      "outputs": [
        {
          "internalType": "bool",
          "name": "",
          "type": "bool"
        }
      ],
      "stateMutability": "nonpayable",
      "type": "function"
    }
  ],
  "bytecode": "0x608060405234801561001057600080fd5b506159d180620000216000396000f3fe608060405234801561001057600080fd5b506004361061004b5760003560e01c80625590b11461005057806316b759b1146100805780639cd441da146100b05780639d7de6b3146100e0575b600080fd5b61006a60048036038101906100659190613d12565b610110565b6040516100779190614448565b60405180910390f35b61009a60048036038101906100959190613ca5565b610e53565b6040516100a79190614448565b60405180910390f35b6100ca60048036038101906100c59190613d88565b611ad5565b6040516100d79190614448565b60405180910390f35b6100fa60048036038101906100f59190613d88565b612019565b6040516101079190614448565b60405180910390f35b60008061011b6129fa565b90506000610127612a27565b90506000610133612a54565b90506000856101200151905060008661010001515111610188576040517f08c379a000000000000000000000000000000000000000000000000000000000815260040161017f906146d6565b60405180910390fd5b6000866040015110156101d0576040517f08c379a00000000000000000000000000000000000000000000000000000000081526004016101c790614736565b60405180910390fd5b85600001518660400151111561021b576040517f08c379a000000000000000000000000000000000000000000000000000000000815260040161021290614776565b60405180910390fd5b856000015186602001511015610266576040517f08c379a000000000000000000000000000000000000000000000000000000000815260040161025d90614816565b60405180910390fd5b600073ffffffffffffffffffffffffffffffffffffffff1686610120015173ffffffffffffffffffffffffffffffffffffffff1614156102db576040517f08c379a00000000000000000000000000000000000000000000000000000000081526004016102d2906147d6565b60405180910390fd5b600073ffffffffffffffffffffffffffffffffffffffff1686610140015173ffffffffffffffffffffffffffffffffffffffff161415610350576040517f08c379a000000000000000000000000000000000000000000000000000000000815260040161034790614516565b60405180910390fd5b60008660c0015111610397576040517f08c379a000000000000000000000000000000000000000000000000000000000815260040161038e906144b6565b60405180910390fd5b60008660e00151116103de576040517f08c379a00000000000000000000000000000000000000000000000000000000081526004016103d590614676565b60405180910390fd5b600086606001511015610426576040517f08c379a000000000000000000000000000000000000000000000000000000000815260040161041d906146b6565b60405180910390fd5b60008660800151101561046e576040517f08c379a0000000000000000000000000000000000000000000000000000000008152600401610465906145f6565b60405180910390fd5b600086606001511180610485575060008660800151115b6104c4576040517f08c379a00000000000000000000000000000000000000000000000000000000081526004016104bb90614876565b60405180910390fd5b60128173ffffffffffffffffffffffffffffffffffffffff1663313ce5676040518163ffffffff1660e01b815260040160206040518083038186803b15801561050c57600080fd5b505afa158015610520573d6000803e3d6000fd5b505050506040513d601f19601f820116820180604052508101906105449190613dc8565b60ff161115610588576040517f08c379a000000000000000000000000000000000000000000000000000000000815260040161057f90614556565b60405180910390fd5b83600001600081548092919061059d90614dd6565b91905055506105c533876080015188606001516105ba91906149d7565b866000015484612a81565b5060008260050160009054906101000a900473ffffffffffffffffffffffffffffffffffffffff1690506105f761389b565b8173ffffffffffffffffffffffffffffffffffffffff1663959daaa6876000015460405160200161062891906143a7565b604051602081830303815290604052886000015460405160200161064c91906143a7565b604051602081830303815290604052896000015460006040518563ffffffff1660e01b81526004016106819493929190614463565b602060405180830381600087803b15801561069b57600080fd5b505af11580156106af573d6000803e3d6000fd5b505050506040513d601f19601f820116820180604052508101906106d39190613c78565b816000019073ffffffffffffffffffffffffffffffffffffffff16908173ffffffffffffffffffffffffffffffffffffffff16815250508173ffffffffffffffffffffffffffffffffffffffff1663959daaa6876000015460405160200161073b9190614381565b604051602081830303815290604052886000015460405160200161075f9190614381565b604051602081830303815290604052896000015460016040518563ffffffff1660e01b81526004016107949493929190614463565b602060405180830381600087803b1580156107ae57600080fd5b505af11580156107c2573d6000803e3d6000fd5b505050506040513d601f19601f820116820180604052508101906107e69190613c78565b816020019073ffffffffffffffffffffffffffffffffffffffff16908173ffffffffffffffffffffffffffffffffffffffff16815250508060000151816040019073ffffffffffffffffffffffffffffffffffffffff16908173ffffffffffffffffffffffffffffffffffffffff16815250508060200151816060019073ffffffffffffffffffffffffffffffffffffffff16908173ffffffffffffffffffffffffffffffffffffffff168152505060405180610300016040528089610100015181526020018960000151815260200189602001518152602001896040015181526020018960c0015181526020018960e0015181526020018960c0015181526020018960e0015181526020018960a00151815260200189610120015173ffffffffffffffffffffffffffffffffffffffff16815260200189606001518152602001896080015181526020018960600151815260200189608001518152602001826000015173ffffffffffffffffffffffffffffffffffffffff168152602001826020015173ffffffffffffffffffffffffffffffffffffffff16815260200160008152602001600060038111156109a05761099f614e87565b5b8152602001600081526020016000815260200142815260200189610140015173ffffffffffffffffffffffffffffffffffffffff168152602001866000015481526020018660010154815250866001016000886000015481526020019081526020016000206000820151816000019080519060200190610a2192919061391b565b506020820151816001015560408201518160020155606082015181600301556080820151816004015560a0820151816005015560c0820151816006015560e0820151816007015561010082015181600801556101208201518160090160006101000a81548173ffffffffffffffffffffffffffffffffffffffff021916908373ffffffffffffffffffffffffffffffffffffffff16021790555061014082015181600a015561016082015181600b015561018082015181600c01556101a082015181600d01556101c082015181600e0160006101000a81548173ffffffffffffffffffffffffffffffffffffffff021916908373ffffffffffffffffffffffffffffffffffffffff1602179055506101e082015181600f0160006101000a81548173ffffffffffffffffffffffffffffffffffffffff021916908373ffffffffffffffffffffffffffffffffffffffff16021790555061020082015181601001556102208201518160110160006101000a81548160ff02191690836003811115610bae57610bad614e87565b5b02179055506102408201518160120155610260820151816013015561028082015181601401556102a08201518160150160006101000a81548173ffffffffffffffffffffffffffffffffffffffff021916908373ffffffffffffffffffffffffffffffffffffffff1602179055506102c082015181601601556102e08201518160170155905050806040015173ffffffffffffffffffffffffffffffffffffffff166322e23daa8960c00151336040518363ffffffff1660e01b8152600401610c78929190614931565b602060405180830381600087803b158015610c9257600080fd5b505af1158015610ca6573d6000803e3d6000fd5b505050506040513d601f19601f82011682018060405250810190610cca9190613ce5565b610d09576040517f08c379a0000000000000000000000000000000000000000000000000000000008152600401610d0090614836565b60405180910390fd5b806060015173ffffffffffffffffffffffffffffffffffffffff166322e23daa8960e00151336040518363ffffffff1660e01b8152600401610d4c929190614931565b602060405180830381600087803b158015610d6657600080fd5b505af1158015610d7a573d6000803e3d6000fd5b505050506040513d601f19601f82011682018060405250810190610d9e9190613ce5565b610ddd576040517f08c379a0000000000000000000000000000000000000000000000000000000008152600401610dd490614536565b60405180910390fd5b806020015173ffffffffffffffffffffffffffffffffffffffff16816000015173ffffffffffffffffffffffffffffffffffffffff1687600001547fa4b8f2eee1720b593c0068a1cec7e99b1850cd8199b67fad46d022f94c82718f60405160405180910390a460019650505050505050919050565b600080610e5e6129fa565b90506000610e6a612a27565b9050610e746139a1565b85816000019073ffffffffffffffffffffffffffffffffffffffff16908173ffffffffffffffffffffffffffffffffffffffff16815250506000836001016000836000015173ffffffffffffffffffffffffffffffffffffffff16633e0dc34e6040518163ffffffff1660e01b815260040160206040518083038186803b158015610efe57600080fd5b505afa158015610f12573d6000803e3d6000fd5b505050506040513d601f19601f82011682018060405250810190610f369190613d5b565b81526020019081526020016000209050600073ffffffffffffffffffffffffffffffffffffffff168773ffffffffffffffffffffffffffffffffffffffff161415610fb6576040517f08c379a0000000000000000000000000000000000000000000000000000000008152600401610fad906145d6565b60405180910390fd5b8673ffffffffffffffffffffffffffffffffffffffff1681600e0160009054906101000a900473ffffffffffffffffffffffffffffffffffffffff1673ffffffffffffffffffffffffffffffffffffffff16148061106357508673ffffffffffffffffffffffffffffffffffffffff1681600f0160009054906101000a900473ffffffffffffffffffffffffffffffffffffffff1673ffffffffffffffffffffffffffffffffffffffff16145b6110a2576040517f08c379a0000000000000000000000000000000000000000000000000000000008152600401611099906148b6565b60405180910390fd5b6000826000015173ffffffffffffffffffffffffffffffffffffffff166370a08231336040518263ffffffff1660e01b81526004016110e191906143cd565b60206040518083038186803b1580156110f957600080fd5b505afa15801561110d573d6000803e3d6000fd5b505050506040513d601f19601f820116820180604052508101906111319190613d5b565b11611171576040517f08c379a000000000000000000000000000000000000000000000000000000000815260040161116890614636565b60405180910390fd5b6000600381111561118557611184614e87565b5b8160110160009054906101000a900460ff1660038111156111a9576111a8614e87565b5b14156111ea576040517f08c379a00000000000000000000000000000000000000000000000000000000081526004016111e190614796565b60405180910390fd5b600060016003811115611200576111ff614e87565b5b8260110160009054906101000a900460ff16600381111561122457611223614e87565b5b1415611288578360030154826014015461123e91906149d7565b421161127f576040517f08c379a0000000000000000000000000000000000000000000000000000000008152600401611276906147f6565b60405180910390fd5b60019050611321565b6002600381111561129c5761129b614e87565b5b8260110160009054906101000a900460ff1660038111156112c0576112bf614e87565b5b141561132057836004015482601401546112da91906149d7565b421161131b576040517f08c379a000000000000000000000000000000000000000000000000000000000815260040161131290614656565b60405180910390fd5b600190505b5b80156116ac5760038260110160006101000a81548160ff0219169083600381111561134f5761134e614e87565b5b0217905550428260140181905550826000015173ffffffffffffffffffffffffffffffffffffffff16633e0dc34e6040518163ffffffff1660e01b815260040160206040518083038186803b1580156113a757600080fd5b505afa1580156113bb573d6000803e3d6000fd5b505050506040513d601f19601f820116820180604052508101906113df9190613d5b565b8260150160009054906101000a900473ffffffffffffffffffffffffffffffffffffffff1673ffffffffffffffffffffffffffffffffffffffff1660038081111561142d5761142c614e87565b5b7f1f0f4d55353f9b9353a225593a52fcd25277e0089ceb197d0ab58738f4200a4285601001546040516114609190614916565b60405180910390a46114f2836000015173ffffffffffffffffffffffffffffffffffffffff16633e0dc34e6040518163ffffffff1660e01b815260040160206040518083038186803b1580156114b557600080fd5b505afa1580156114c9573d6000803e3d6000fd5b505050506040513d601f19601f820116820180604052508101906114ed9190613d5b565b612bd8565b611531576040517f08c379a0000000000000000000000000000000000000000000000000000000008152600401611528906144d6565b60405180910390fd5b6115e5836000015173ffffffffffffffffffffffffffffffffffffffff16633e0dc34e6040518163ffffffff1660e01b815260040160206040518083038186803b15801561157e57600080fd5b505afa158015611592573d6000803e3d6000fd5b505050506040513d601f19601f820116820180604052508101906115b69190613d5b565b83601601548660060160009054906101000a900473ffffffffffffffffffffffffffffffffffffffff16612e54565b6115ee57600080fd5b6116a2836000015173ffffffffffffffffffffffffffffffffffffffff16633e0dc34e6040518163ffffffff1660e01b815260040160206040518083038186803b15801561163b57600080fd5b505afa15801561164f573d6000803e3d6000fd5b505050506040513d601f19601f820116820180604052508101906116739190613d5b565b83601701548460150160009054906101000a900473ffffffffffffffffffffffffffffffffffffffff16612e54565b6116ab57600080fd5b5b6003808111156116bf576116be614e87565b5b8260110160009054906101000a900460ff1660038111156116e3576116e2614e87565b5b1415611ac657826000015173ffffffffffffffffffffffffffffffffffffffff16633dc5f63033896040518363ffffffff1660e01b815260040161172892919061441f565b602060405180830381600087803b15801561174257600080fd5b505af1158015611756573d6000803e3d6000fd5b505050506040513d601f19601f8201168201806040525081019061177a9190613ce5565b6117b9576040517f08c379a00000000000000000000000000000000000000000000000000000000081526004016117b0906144f6565b60405180910390fd5b8160090160009054906101000a900473ffffffffffffffffffffffffffffffffffffffff16836020019073ffffffffffffffffffffffffffffffffffffffff16908173ffffffffffffffffffffffffffffffffffffffff1681525050826000015173ffffffffffffffffffffffffffffffffffffffff1663202a61a16040518163ffffffff1660e01b815260040160206040518083038186803b15801561185f57600080fd5b505afa158015611873573d6000803e3d6000fd5b505050506040513d601f19601f820116820180604052508101906118979190613ce5565b156118af5781601201548360400181815250506118be565b81601301548360400181815250505b611ac4836000015173ffffffffffffffffffffffffffffffffffffffff16633e0dc34e6040518163ffffffff1660e01b815260040160206040518083038186803b15801561190b57600080fd5b505afa15801561191f573d6000803e3d6000fd5b505050506040513d601f19601f820116820180604052508101906119439190613d5b565b8360090160009054906101000a900473ffffffffffffffffffffffffffffffffffffffff1633866020015173ffffffffffffffffffffffffffffffffffffffff1663313ce5676040518163ffffffff1660e01b815260040160206040518083038186803b1580156119b357600080fd5b505afa1580156119c7573d6000803e3d6000fd5b505050506040513d601f19601f820116820180604052508101906119eb9190613dc8565b60126119f79190614ca8565b600a611a039190614afc565b611ab5886020015173ffffffffffffffffffffffffffffffffffffffff1663313ce5676040518163ffffffff1660e01b815260040160206040518083038186803b158015611a5057600080fd5b505afa158015611a64573d6000803e3d6000fd5b505050506040513d601f19601f82011682018060405250810190611a889190613dc8565b6012611a949190614ca8565b600a611aa09190614afc565b8960400151611aaf9190614c1a565b8d61322b565b611abf9190614a2d565b61325c565b505b60019550505050505092915050565b600080611ae06129fa565b90506000816001016000868152602001908152602001600020905060008411611b3e576040517f08c379a0000000000000000000000000000000000000000000000000000000008152600401611b3590614896565b60405180910390fd5b80600801544210611b84576040517f08c379a0000000000000000000000000000000000000000000000000000000008152600401611b7b90614616565b60405180910390fd5b60008160090160009054906101000a900473ffffffffffffffffffffffffffffffffffffffff169050611bb933868884612a81565b50611bc26139ee565b611bec611bd384600a01548861322b565b84600b015485600a0154611be791906149d7565b613446565b816060018181525050806060015186611c059190614c74565b816040018181525050611ca4836004015484600a015485600b01548573ffffffffffffffffffffffffffffffffffffffff1663313ce5676040518163ffffffff1660e01b815260040160206040518083038186803b158015611c6657600080fd5b505afa158015611c7a573d6000803e3d6000fd5b505050506040513d601f19601f82011682018060405250810190611c9e9190613dc8565b8a613477565b816020018181525050611d43836005015484600a015485600b01548573ffffffffffffffffffffffffffffffffffffffff1663313ce5676040518163ffffffff1660e01b815260040160206040518083038186803b158015611d0557600080fd5b505afa158015611d19573d6000803e3d6000fd5b505050506040513d601f19601f82011682018060405250810190611d3d9190613dc8565b8a613477565b8160000181815250508060200151836006016000828254611d6491906149d7565b925050819055508060000151836007016000828254611d8391906149d7565b92505081905550806060015183600c016000828254611da291906149d7565b92505081905550806040015183600d016000828254611dc191906149d7565b92505081905550600083600e0160009054906101000a900473ffffffffffffffffffffffffffffffffffffffff169050600084600f0160009054906101000a900473ffffffffffffffffffffffffffffffffffffffff1690508173ffffffffffffffffffffffffffffffffffffffff166322e23daa8460200151336040518363ffffffff1660e01b8152600401611e59929190614931565b602060405180830381600087803b158015611e7357600080fd5b505af1158015611e87573d6000803e3d6000fd5b505050506040513d601f19601f82011682018060405250810190611eab9190613ce5565b611eea576040517f08c379a0000000000000000000000000000000000000000000000000000000008152600401611ee190614836565b60405180910390fd5b8073ffffffffffffffffffffffffffffffffffffffff166322e23daa8460000151336040518363ffffffff1660e01b8152600401611f29929190614931565b602060405180830381600087803b158015611f4357600080fd5b505af1158015611f57573d6000803e3d6000fd5b505050506040513d601f19601f82011682018060405250810190611f7b9190613ce5565b611fba576040517f08c379a0000000000000000000000000000000000000000000000000000000008152600401611fb190614536565b60405180910390fd5b3373ffffffffffffffffffffffffffffffffffffffff16897fc733c2813826d31c105dbff518b08258e9e7aeb3eb1c7c7f642d77696faf501d8a6040516120019190614916565b60405180910390a36001965050505050505092915050565b6000806120246129fa565b90506000816001016000868152602001908152602001600020905080600801544210612085576040517f08c379a000000000000000000000000000000000000000000000000000000000815260040161207c90614616565b60405180910390fd5b600084116120c8576040517f08c379a00000000000000000000000000000000000000000000000000000000081526004016120bf906148f6565b60405180910390fd5b600081600e0160009054906101000a900473ffffffffffffffffffffffffffffffffffffffff169050600082600f0160009054906101000a900473ffffffffffffffffffffffffffffffffffffffff16905060008360090160009054906101000a900473ffffffffffffffffffffffffffffffffffffffff16905061214b613a16565b846007015488141561218657846006015481600001818152505084600c015481602001818152505084600d01548160400181815250506122e3565b6121a161219789876004015461322b565b8660050154613446565b81600001818152505061223f816000015186600a015487600401548573ffffffffffffffffffffffffffffffffffffffff1663313ce5676040518163ffffffff1660e01b815260040160206040518083038186803b15801561220257600080fd5b505afa158015612216573d6000803e3d6000fd5b505050506040513d601f19601f8201168201806040525081019061223a9190613dc8565b6134ca565b8160200181815250506122d98886600b015487600501548573ffffffffffffffffffffffffffffffffffffffff1663313ce5676040518163ffffffff1660e01b815260040160206040518083038186803b15801561229c57600080fd5b505afa1580156122b0573d6000803e3d6000fd5b505050506040513d601f19601f820116820180604052508101906122d49190613dc8565b6134ca565b8160400181815250505b600081600001511161232a576040517f08c379a000000000000000000000000000000000000000000000000000000000815260040161232190614696565b60405180910390fd5b80600001518473ffffffffffffffffffffffffffffffffffffffff166370a08231336040518263ffffffff1660e01b815260040161236891906143cd565b60206040518083038186803b15801561238057600080fd5b505afa158015612394573d6000803e3d6000fd5b505050506040513d601f19601f820116820180604052508101906123b89190613d5b565b1015801561244e5750878373ffffffffffffffffffffffffffffffffffffffff166370a08231336040518263ffffffff1660e01b81526004016123fb91906143cd565b60206040518083038186803b15801561241357600080fd5b505afa158015612427573d6000803e3d6000fd5b505050506040513d601f19601f8201168201806040525081019061244b9190613d5b565b10155b61248d576040517f08c379a000000000000000000000000000000000000000000000000000000000815260040161248490614756565b60405180910390fd5b61252c8560160154826040015183602001516124a991906149d7565b8473ffffffffffffffffffffffffffffffffffffffff1663313ce5676040518163ffffffff1660e01b815260040160206040518083038186803b1580156124ef57600080fd5b505afa158015612503573d6000803e3d6000fd5b505050506040513d601f19601f820116820180604052508101906125279190613dc8565b613534565b8160600181815250506125d485601701548260400151836020015161255191906149d7565b8473ffffffffffffffffffffffffffffffffffffffff1663313ce5676040518163ffffffff1660e01b815260040160206040518083038186803b15801561259757600080fd5b505afa1580156125ab573d6000803e3d6000fd5b505050506040513d601f19601f820116820180604052508101906125cf9190613dc8565b613534565b81608001818152505080600001518560060160008282546125f59190614c74565b92505081905550878560070160008282546126109190614c74565b92505081905550806020015185600c01600082825461262f9190614c74565b92505081905550806040015185600d01600082825461264e9190614c74565b925050819055508373ffffffffffffffffffffffffffffffffffffffff16633dc5f6303383600001516040518363ffffffff1660e01b815260040161269492919061441f565b602060405180830381600087803b1580156126ae57600080fd5b505af11580156126c2573d6000803e3d6000fd5b505050506040513d601f19601f820116820180604052508101906126e69190613ce5565b612725576040517f08c379a000000000000000000000000000000000000000000000000000000000815260040161271c906145b6565b60405180910390fd5b8273ffffffffffffffffffffffffffffffffffffffff16633dc5f630338a6040518363ffffffff1660e01b815260040161276092919061441f565b602060405180830381600087803b15801561277a57600080fd5b505af115801561278e573d6000803e3d6000fd5b505050506040513d601f19601f820116820180604052508101906127b29190613ce5565b6127f1576040517f08c379a00000000000000000000000000000000000000000000000000000000081526004016127e8906145b6565b60405180910390fd5b612850898660090160009054906101000a900473ffffffffffffffffffffffffffffffffffffffff16612822612a27565b60060160009054906101000a900473ffffffffffffffffffffffffffffffffffffffff168460600151613594565b61288f576040517f08c379a0000000000000000000000000000000000000000000000000000000008152600401612886906148d6565b60405180910390fd5b6128e7898660090160009054906101000a900473ffffffffffffffffffffffffffffffffffffffff168760150160009054906101000a900473ffffffffffffffffffffffffffffffffffffffff168460800151613594565b612926576040517f08c379a000000000000000000000000000000000000000000000000000000000815260040161291d90614576565b60405180910390fd5b612987898660090160009054906101000a900473ffffffffffffffffffffffffffffffffffffffff1633846080015185606001518660400151876020015161296e91906149d7565b6129789190614c74565b6129829190614c74565b61325c565b503373ffffffffffffffffffffffffffffffffffffffff16897f7cd78db3fa0f169740484c879803073b63a35c4c5d82f02312e7aa988eee8554836040015184602001516129d591906149d7565b6040516129e29190614916565b60405180910390a36001965050505050505092915050565b6000807f57b54c9a1067e6ab879c66c176c4e86e41fe1dcf5187b31dc2b93365087c7afb90508091505090565b6000807f898b136e888260ec0628fb6c3ad8f54cb15908878595b2abfc8c9ecda73a4daf90508091505090565b6000807fc8fcad8db84d3cc18b4c41d551ea0ee66dd599cde068d998e57d5e09332c131c90508091505090565b600080612a8c613741565b905060008390508582600101600087815260200190815260200160002060008673ffffffffffffffffffffffffffffffffffffffff1673ffffffffffffffffffffffffffffffffffffffff1681526020019081526020016000206000828254612af591906149d7565b925050819055508073ffffffffffffffffffffffffffffffffffffffff166323b872dd8830896040518463ffffffff1660e01b8152600401612b39939291906143e8565b602060405180830381600087803b158015612b5357600080fd5b505af1158015612b67573d6000803e3d6000fd5b505050506040513d601f19601f82011682018060405250810190612b8b9190613ce5565b612bca576040517f08c379a0000000000000000000000000000000000000000000000000000000008152600401612bc190614716565b60405180910390fd5b600192505050949350505050565b600080612be36129fa565b905060008160010160008581526020019081526020016000209050600080600380811115612c1457612c13614e87565b5b8360110160009054906101000a900460ff166003811115612c3857612c37614e87565b5b14612c78576040517f08c379a0000000000000000000000000000000000000000000000000000000008152600401612c6f90614856565b60405180910390fd5b60008360090160009054906101000a900473ffffffffffffffffffffffffffffffffffffffff16905060008173ffffffffffffffffffffffffffffffffffffffff1663313ce5676040518163ffffffff1660e01b815260040160206040518083038186803b158015612ce957600080fd5b505afa158015612cfd573d6000803e3d6000fd5b505050506040513d601f19601f82011682018060405250810190612d219190613dc8565b6012612d2d9190614ca8565b600a612d399190614afc565b9050612d778560010154866002015487600301548489600d0154612d5d9190614c1a565b858a600c0154612d6d9190614c1a565b8a6010015461376e565b80955081945050506000612d8f86601601548661322b565b90506000612da187601601548661322b565b90506000612db388601701548861322b565b90506000612dc589601701548861322b565b905060008285612dd591906149d7565b89612de09190614c74565b905060008285612df091906149d7565b89612dfb9190614c74565b905086612e0c838d60070154613446565b612e169190614a2d565b8b6012018190555086612e2d828d60060154613446565b612e379190614a2d565b8b6013018190555060019c50505050505050505050505050919050565b600080612e5f6129fa565b9050600081600101600087815260200190815260200160002060405180610300016040529081600082018054612e9490614d73565b80601f0160208091040260200160405190810160405280929190818152602001828054612ec090614d73565b8015612f0d5780601f10612ee257610100808354040283529160200191612f0d565b820191906000526020600020905b815481529060010190602001808311612ef057829003601f168201915b5050505050815260200160018201548152602001600282015481526020016003820154815260200160048201548152602001600582015481526020016006820154815260200160078201548152602001600882015481526020016009820160009054906101000a900473ffffffffffffffffffffffffffffffffffffffff1673ffffffffffffffffffffffffffffffffffffffff1673ffffffffffffffffffffffffffffffffffffffff168152602001600a8201548152602001600b8201548152602001600c8201548152602001600d8201548152602001600e820160009054906101000a900473ffffffffffffffffffffffffffffffffffffffff1673ffffffffffffffffffffffffffffffffffffffff1673ffffffffffffffffffffffffffffffffffffffff168152602001600f820160009054906101000a900473ffffffffffffffffffffffffffffffffffffffff1673ffffffffffffffffffffffffffffffffffffffff1673ffffffffffffffffffffffffffffffffffffffff168152602001601082015481526020016011820160009054906101000a900460ff1660038111156130bf576130be614e87565b5b60038111156130d1576130d0614e87565b5b81526020016012820154815260200160138201548152602001601482015481526020016015820160009054906101000a900473ffffffffffffffffffffffffffffffffffffffff1673ffffffffffffffffffffffffffffffffffffffff1673ffffffffffffffffffffffffffffffffffffffff16815260200160168201548152602001601782015481525050905060008161012001519050600061320887846101800151856101a0015161318591906149d7565b8473ffffffffffffffffffffffffffffffffffffffff1663313ce5676040518163ffffffff1660e01b815260040160206040518083038186803b1580156131cb57600080fd5b505afa1580156131df573d6000803e3d6000fd5b505050506040513d601f19601f820116820180604052508101906132039190613dc8565b613534565b905061321b888461012001518884613594565b5060019450505050509392505050565b6000601260ff16600a61323e9190614ab1565b828461324a9190614c1a565b6132549190614a2d565b905092915050565b600080613267613741565b9050600085905081600101600088815260200190815260200160002060008773ffffffffffffffffffffffffffffffffffffffff1673ffffffffffffffffffffffffffffffffffffffff16815260200190815260200160002054841115613303576040517f08c379a00000000000000000000000000000000000000000000000000000000081526004016132fa906146f6565b60405180910390fd5b8382600101600089815260200190815260200160002060008873ffffffffffffffffffffffffffffffffffffffff1673ffffffffffffffffffffffffffffffffffffffff16815260200190815260200160002060008282546133659190614c74565b925050819055508073ffffffffffffffffffffffffffffffffffffffff1663a9059cbb86866040518363ffffffff1660e01b81526004016133a792919061441f565b602060405180830381600087803b1580156133c157600080fd5b505af11580156133d5573d6000803e3d6000fd5b505050506040513d601f19601f820116820180604052508101906133f99190613ce5565b613438576040517f08c379a000000000000000000000000000000000000000000000000000000000815260040161342f906147b6565b60405180910390fd5b600192505050949350505050565b600081601260ff16600a61345a9190614ab1565b846134659190614c1a565b61346f9190614a2d565b905092915050565b6000806134bb613487888561322b565b8560126134949190614ca8565b600a6134a09190614afc565b87896134ac91906149d7565b6134b69190614c1a565b613446565b90508091505095945050505050565b6000808260126134da9190614ca8565b600a6134e69190614afc565b61351c613516888660126134fa9190614ca8565b600a6135069190614afc565b896135119190614c1a565b61322b565b86613446565b6135269190614a2d565b905080915050949350505050565b6000808260126135449190614ca8565b600a6135509190614afc565b61357d868560126135619190614ca8565b600a61356d9190614afc565b876135789190614c1a565b61322b565b6135879190614a2d565b9050809150509392505050565b60008061359f613741565b905080600101600087815260200190815260200160002060008673ffffffffffffffffffffffffffffffffffffffff1673ffffffffffffffffffffffffffffffffffffffff16815260200190815260200160002054831115613636576040517f08c379a000000000000000000000000000000000000000000000000000000000815260040161362d90614596565b60405180910390fd5b8281600101600088815260200190815260200160002060008773ffffffffffffffffffffffffffffffffffffffff1673ffffffffffffffffffffffffffffffffffffffff16815260200190815260200160002060008282546136989190614c74565b92505081905550828160000160008773ffffffffffffffffffffffffffffffffffffffff1673ffffffffffffffffffffffffffffffffffffffff16815260200190815260200160002060008673ffffffffffffffffffffffffffffffffffffffff1673ffffffffffffffffffffffffffffffffffffffff168152602001908152602001600020600082825461372d91906149d7565b925050819055506001915050949350505050565b6000807faa80508862c2755b3bec068087a52c5c5d27e516adb980608e66b45e74b59f2390508091505090565b6000808783141561378157849050613877565b878310156137f257878714801561379757508786145b806137a157508786145b156137af57600090506137ed565b858311156137e7576137e06137cf8688866137ca9190614c74565b61322b565b878a6137db9190614c74565b613446565b90506137ec565b600090505b5b613876565b878714801561380057508786145b8061380a57508688145b1561382257838561381b91906149d7565b9050613875565b8683101561386557613853613842858a8661383d9190614c74565b61322b565b898961384e9190614c74565b613446565b8561385e91906149d7565b9050613874565b838561387191906149d7565b90505b5b5b5b80848661388491906149d7565b61388e9190614c74565b9150965096945050505050565b6040518060800160405280600073ffffffffffffffffffffffffffffffffffffffff168152602001600073ffffffffffffffffffffffffffffffffffffffff168152602001600073ffffffffffffffffffffffffffffffffffffffff168152602001600073ffffffffffffffffffffffffffffffffffffffff1681525090565b82805461392790614d73565b90600052602060002090601f0160209004810192826139495760008555613990565b82601f1061396257805160ff1916838001178555613990565b82800160010185558215613990579182015b8281111561398f578251825591602001919060010190613974565b5b50905061399d9190613a45565b5090565b6040518060600160405280600073ffffffffffffffffffffffffffffffffffffffff168152602001600073ffffffffffffffffffffffffffffffffffffffff168152602001600081525090565b6040518060800160405280600081526020016000815260200160008152602001600081525090565b6040518060a0016040528060008152602001600081526020016000815260200160008152602001600081525090565b5b80821115613a5e576000816000905550600101613a46565b5090565b6000613a75613a708461497f565b61495a565b905082815260208101848484011115613a9157613a90614f23565b5b613a9c848285614d31565b509392505050565b600081359050613ab38161593f565b92915050565b600081519050613ac88161593f565b92915050565b600081519050613add81615956565b92915050565b600082601f830112613af857613af7614f14565b5b8135613b08848260208601613a62565b91505092915050565b60006101608284031215613b2857613b27614f19565b5b613b3361016061495a565b90506000613b4384828501613c39565b6000830152506020613b5784828501613c39565b6020830152506040613b6b84828501613c39565b6040830152506060613b7f84828501613c39565b6060830152506080613b9384828501613c39565b60808301525060a0613ba784828501613c39565b60a08301525060c0613bbb84828501613c39565b60c08301525060e0613bcf84828501613c39565b60e08301525061010082013567ffffffffffffffff811115613bf457613bf3614f1e565b5b613c0084828501613ae3565b61010083015250610120613c1684828501613aa4565b61012083015250610140613c2c84828501613aa4565b6101408301525092915050565b600081359050613c488161596d565b92915050565b600081519050613c5d8161596d565b92915050565b600081519050613c7281615984565b92915050565b600060208284031215613c8e57613c8d614f2d565b5b6000613c9c84828501613ab9565b91505092915050565b60008060408385031215613cbc57613cbb614f2d565b5b6000613cca85828601613aa4565b9250506020613cdb85828601613c39565b9150509250929050565b600060208284031215613cfb57613cfa614f2d565b5b6000613d0984828501613ace565b91505092915050565b600060208284031215613d2857613d27614f2d565b5b600082013567ffffffffffffffff811115613d4657613d45614f28565b5b613d5284828501613b11565b91505092915050565b600060208284031215613d7157613d70614f2d565b5b6000613d7f84828501613c4e565b91505092915050565b60008060408385031215613d9f57613d9e614f2d565b5b6000613dad85828601613c39565b9250506020613dbe85828601613c39565b9150509250929050565b600060208284031215613dde57613ddd614f2d565b5b6000613dec84828501613c63565b91505092915050565b613dfe81614cdc565b82525050565b613e0d81614cee565b82525050565b6000613e1e826149b0565b613e2881856149bb565b9350613e38818560208601614d40565b613e4181614f32565b840191505092915050565b6000613e596029836149bb565b9150613e6482614f50565b604082019050919050565b6000613e7c601f836149bb565b9150613e8782614f9f565b602082019050919050565b6000613e9f6029836149bb565b9150613eaa82614fc8565b604082019050919050565b6000613ec26027836149bb565b9150613ecd82615017565b604082019050919050565b6000613ee5601c836149bb565b9150613ef082615066565b602082019050919050565b6000613f086029836149bb565b9150613f138261508f565b604082019050919050565b6000613f2b602f836149bb565b9150613f36826150de565b604082019050919050565b6000613f4e6034836149bb565b9150613f598261512d565b604082019050919050565b6000613f716026836149bb565b9150613f7c8261517c565b604082019050919050565b6000613f946024836149bb565b9150613f9f826151cb565b604082019050919050565b6000613fb76029836149bb565b9150613fc28261521a565b604082019050919050565b6000613fda6012836149bb565b9150613fe582615269565b602082019050919050565b6000613ffd6021836149bb565b915061400882615292565b604082019050919050565b60006140206023836149bb565b915061402b826152e1565b604082019050919050565b60006140436028836149bb565b915061404e82615330565b604082019050919050565b60006140666020836149bb565b91506140718261537f565b602082019050919050565b6000614089602a836149bb565b9150614094826153a8565b604082019050919050565b60006140ac6002836149cc565b91506140b7826153f7565b600282019050919050565b60006140cf6021836149bb565b91506140da82615420565b604082019050919050565b60006140f2602f836149bb565b91506140fd8261546f565b604082019050919050565b60006141156026836149bb565b9150614120826154be565b604082019050919050565b60006141386002836149cc565b91506141438261550d565b600282019050919050565b600061415b6017836149bb565b915061416682615536565b602082019050919050565b600061417e6069836149bb565b91506141898261555f565b608082019050919050565b60006141a1601e836149bb565b91506141ac826155fa565b602082019050919050565b60006141c46027836149bb565b91506141cf82615623565b604082019050919050565b60006141e76021836149bb565b91506141f282615672565b604082019050919050565b600061420a6026836149bb565b9150614215826156c1565b604082019050919050565b600061422d6026836149bb565b915061423882615710565b604082019050919050565b6000614250601c836149bb565b915061425b8261575f565b602082019050919050565b6000614273601d836149bb565b915061427e82615788565b602082019050919050565b6000614296602d836149bb565b91506142a1826157b1565b604082019050919050565b60006142b9603b836149bb565b91506142c482615800565b604082019050919050565b60006142dc601f836149bb565b91506142e78261584f565b602082019050919050565b60006142ff6024836149bb565b915061430a82615878565b604082019050919050565b60006143226024836149bb565b915061432d826158c7565b604082019050919050565b6000614345601f836149bb565b915061435082615916565b602082019050919050565b61436481614d1a565b82525050565b61437b61437682614d1a565b614e1f565b82525050565b600061438c8261409f565b9150614398828461436a565b60208201915081905092915050565b60006143b28261412b565b91506143be828461436a565b60208201915081905092915050565b60006020820190506143e26000830184613df5565b92915050565b60006060820190506143fd6000830186613df5565b61440a6020830185613df5565b614417604083018461435b565b949350505050565b60006040820190506144346000830185613df5565b614441602083018461435b565b9392505050565b600060208201905061445d6000830184613e04565b92915050565b6000608082019050818103600083015261447d8187613e13565b905081810360208301526144918186613e13565b90506144a0604083018561435b565b6144ad6060830184613e04565b95945050505050565b600060208201905081810360008301526144cf81613e4c565b9050919050565b600060208201905081810360008301526144ef81613e6f565b9050919050565b6000602082019050818103600083015261450f81613e92565b9050919050565b6000602082019050818103600083015261452f81613eb5565b9050919050565b6000602082019050818103600083015261454f81613ed8565b9050919050565b6000602082019050818103600083015261456f81613efb565b9050919050565b6000602082019050818103600083015261458f81613f1e565b9050919050565b600060208201905081810360008301526145af81613f41565b9050919050565b600060208201905081810360008301526145cf81613f64565b9050919050565b600060208201905081810360008301526145ef81613f87565b9050919050565b6000602082019050818103600083015261460f81613faa565b9050919050565b6000602082019050818103600083015261462f81613fcd565b9050919050565b6000602082019050818103600083015261464f81613ff0565b9050919050565b6000602082019050818103600083015261466f81614013565b9050919050565b6000602082019050818103600083015261468f81614036565b9050919050565b600060208201905081810360008301526146af81614059565b9050919050565b600060208201905081810360008301526146cf8161407c565b9050919050565b600060208201905081810360008301526146ef816140c2565b9050919050565b6000602082019050818103600083015261470f816140e5565b9050919050565b6000602082019050818103600083015261472f81614108565b9050919050565b6000602082019050818103600083015261474f8161414e565b9050919050565b6000602082019050818103600083015261476f81614171565b9050919050565b6000602082019050818103600083015261478f81614194565b9050919050565b600060208201905081810360008301526147af816141b7565b9050919050565b600060208201905081810360008301526147cf816141da565b9050919050565b600060208201905081810360008301526147ef816141fd565b9050919050565b6000602082019050818103600083015261480f81614220565b9050919050565b6000602082019050818103600083015261482f81614243565b9050919050565b6000602082019050818103600083015261484f81614266565b9050919050565b6000602082019050818103600083015261486f81614289565b9050919050565b6000602082019050818103600083015261488f816142ac565b9050919050565b600060208201905081810360008301526148af816142cf565b9050919050565b600060208201905081810360008301526148cf816142f2565b9050919050565b600060208201905081810360008301526148ef81614315565b9050919050565b6000602082019050818103600083015261490f81614338565b9050919050565b600060208201905061492b600083018461435b565b92915050565b6000604082019050614946600083018561435b565b6149536020830184613df5565b9392505050565b6000614964614975565b90506149708282614da5565b919050565b6000604051905090565b600067ffffffffffffffff82111561499a57614999614ee5565b5b6149a382614f32565b9050602081019050919050565b600081519050919050565b600082825260208201905092915050565b600081905092915050565b60006149e282614d1a565b91506149ed83614d1a565b9250827fffffffffffffffffffffffffffffffffffffffffffffffffffffffffffffffff03821115614a2257614a21614e29565b5b828201905092915050565b6000614a3882614d1a565b9150614a4383614d1a565b925082614a5357614a52614e58565b5b828204905092915050565b6000808291508390505b6001851115614aa857808604811115614a8457614a83614e29565b5b6001851615614a935780820291505b8081029050614aa185614f43565b9450614a68565b94509492505050565b6000614abc82614d1a565b9150614ac783614d1a565b9250614af47fffffffffffffffffffffffffffffffffffffffffffffffffffffffffffffffff8484614b47565b905092915050565b6000614b0782614d1a565b9150614b1283614d24565b9250614b3f7fffffffffffffffffffffffffffffffffffffffffffffffffffffffffffffffff8484614b47565b905092915050565b600082614b575760019050614c13565b81614b655760009050614c13565b8160018114614b7b5760028114614b8557614bb4565b6001915050614c13565b60ff841115614b9757614b96614e29565b5b8360020a915084821115614bae57614bad614e29565b5b50614c13565b5060208310610133831016604e8410600b8410161715614be95782820a905083811115614be457614be3614e29565b5b614c13565b614bf68484846001614a5e565b92509050818404811115614c0d57614c0c614e29565b5b81810290505b9392505050565b6000614c2582614d1a565b9150614c3083614d1a565b9250817fffffffffffffffffffffffffffffffffffffffffffffffffffffffffffffffff0483118215151615614c6957614c68614e29565b5b828202905092915050565b6000614c7f82614d1a565b9150614c8a83614d1a565b925082821015614c9d57614c9c614e29565b5b828203905092915050565b6000614cb382614d24565b9150614cbe83614d24565b925082821015614cd157614cd0614e29565b5b828203905092915050565b6000614ce782614cfa565b9050919050565b60008115159050919050565b600073ffffffffffffffffffffffffffffffffffffffff82169050919050565b6000819050919050565b600060ff82169050919050565b82818337600083830152505050565b60005b83811015614d5e578082015181840152602081019050614d43565b83811115614d6d576000848401525b50505050565b60006002820490506001821680614d8b57607f821691505b60208210811415614d9f57614d9e614eb6565b5b50919050565b614dae82614f32565b810181811067ffffffffffffffff82111715614dcd57614dcc614ee5565b5b80604052505050565b6000614de182614d1a565b91507fffffffffffffffffffffffffffffffffffffffffffffffffffffffffffffffff821415614e1457614e13614e29565b5b600182019050919050565b6000819050919050565b7f4e487b7100000000000000000000000000000000000000000000000000000000600052601160045260246000fd5b7f4e487b7100000000000000000000000000000000000000000000000000000000600052601260045260246000fd5b7f4e487b7100000000000000000000000000000000000000000000000000000000600052602160045260246000fd5b7f4e487b7100000000000000000000000000000000000000000000000000000000600052602260045260246000fd5b7f4e487b7100000000000000000000000000000000000000000000000000000000600052604160045260246000fd5b600080fd5b600080fd5b600080fd5b600080fd5b600080fd5b600080fd5b6000601f19601f8301169050919050565b60008160011c9050919050565b7f444956413a2073686f727420706f736974696f6e20746f6b656e20737570706c60008201527f79206973207a65726f0000000000000000000000000000000000000000000000602082015250565b7f444956413a20726564656d7074696f6e20616d6f756e74206e6f742073657400600082015250565b7f444956413a20726564656d7074696f6e206f6620706f736974696f6e20746f6b60008201527f656e206661696c65640000000000000000000000000000000000000000000000602082015250565b7f444956413a2064617461666565642070726f7669646572206973207a65726f2060008201527f6164647265737300000000000000000000000000000000000000000000000000602082015250565b7f444956413a206c6f6e6720746f6b656e206d696e74206661696c656400000000600082015250565b7f444956413a20636f6c6c61746572616c20746f6b656e20646563696d616c732060008201527f6578636565642031380000000000000000000000000000000000000000000000602082015250565b7f444956413a20666565207472616e7366657220746f206461746120666565642060008201527f70726f7669646572206661696c65640000000000000000000000000000000000602082015250565b7f444956413a20616d6f756e74206578636565647320636f6c6c61746572616c2060008201527f62616c616e6365206f6620706f6f6c20706f6f6c000000000000000000000000602082015250565b7f444956413a20706f736974696f6e20746f6b656e20726564656d7074696f6e2060008201527f6661696c65640000000000000000000000000000000000000000000000000000602082015250565b7f444956413a20706f736974696f6e20746f6b656e206973207a65726f2061646460008201527f7265737300000000000000000000000000000000000000000000000000000000602082015250565b7f444956413a206c6f6e6720636f6c6c61746572616c2062616c616e636520697360008201527f206e656761746976650000000000000000000000000000000000000000000000602082015250565b7f444956413a20706f6f6c20657870697265640000000000000000000000000000600082015250565b7f444956413a207a65726f20706f736974696f6e20746f6b656e2062616c616e6360008201527f6500000000000000000000000000000000000000000000000000000000000000602082015250565b7f444956413a2072657669657720706572696f64206e6f7420796574206578706960008201527f7265640000000000000000000000000000000000000000000000000000000000602082015250565b7f444956413a206c6f6e6720706f736974696f6e20746f6b656e20737570706c7960008201527f206973207a65726f000000000000000000000000000000000000000000000000602082015250565b7f444956413a2073686f727420746f6b656e20616d6f756e74206973207a65726f600082015250565b7f444956413a2073686f727420636f6c6c61746572616c2062616c616e6365206960008201527f73206e6567617469766500000000000000000000000000000000000000000000602082015250565b7f4c2d000000000000000000000000000000000000000000000000000000000000600082015250565b7f444956413a206e6f207265666572656e63652061737365742070726f7669646560008201527f6400000000000000000000000000000000000000000000000000000000000000602082015250565b7f444956413a20616d6f756e74206578636565647320636f6c6c61746572616c2060008201527f62616c616e6365206f6620706f6f6c0000000000000000000000000000000000602082015250565b7f444956413a20636f6c6c61746572616c20746f6b656e207472616e736665722060008201527f6661696c65640000000000000000000000000000000000000000000000000000602082015250565b7f532d000000000000000000000000000000000000000000000000000000000000600082015250565b7f444956413a20666c6f6f72206973206e65676174697665000000000000000000600082015250565b7f444956413a20696e73756666696369656e74206c6f6e67206f722073686f727460008201527f20746f6b656e2062616c616e63652c20706f74656e7469616c6c79206475652060208201527f746f20726f756e64696e672e20547279206120736c696768746c79206c6f776560408201527f7220616d6f756e742e0000000000000000000000000000000000000000000000606082015250565b7f444956413a20666c6f6f72206772656174657220696e666c656374696f6e0000600082015250565b7f444956413a2066696e616c207265666572656e63652076616c7565206e6f742060008201527f7365742079657400000000000000000000000000000000000000000000000000602082015250565b7f444956413a206661696c656420746f2072657475726e20636f6c6c617465726160008201527f6c00000000000000000000000000000000000000000000000000000000000000602082015250565b7f444956413a20636f6c6c61746572616c20746f6b656e206973207a65726f206160008201527f6464726573730000000000000000000000000000000000000000000000000000602082015250565b7f444956413a206368616c6c656e676520706572696f64206e6f7420796574206560008201527f7870697265640000000000000000000000000000000000000000000000000000602082015250565b7f444956413a2063617020736d616c6c657220696e666c656374696f6e00000000600082015250565b7f444956413a2073686f727420746f6b656e206d696e74206661696c6564000000600082015250565b7f444956413a2066696e616c207265666572656e63652076616c7565206e6f742060008201527f79657420636f6e6669726d656400000000000000000000000000000000000000602082015250565b7f444956413a20626f74682073686f727420616e64206c6f6e6720636f6c6c617460008201527f6572616c20706f6f6c2062616c616e63657320617265207a65726f0000000000602082015250565b7f444956413a20636f6c6c61746572616c20616d6f756e74206973207a65726f00600082015250565b7f444956413a20696e76616c696420706f736974696f6e20746f6b656e2061646460008201527f7265737300000000000000000000000000000000000000000000000000000000602082015250565b7f444956413a20666565207472616e7366657220746f207472656173757920666160008201527f696c656400000000000000000000000000000000000000000000000000000000602082015250565b7f444956413a206c6f6e6720746f6b656e20616d6f756e74206973207a65726f00600082015250565b61594881614cdc565b811461595357600080fd5b50565b61595f81614cee565b811461596a57600080fd5b50565b61597681614d1a565b811461598157600080fd5b50565b61598d81614d24565b811461599857600080fd5b5056fea264697066735822122082edc36c05d4776351ef050bf71addecca02e6cd460ca8a3655c7f955fb97d5864736f6c63430008060033",
  "linkReferences": {},
  "deployedLinkReferences": {}
}